:10000000CCEF07F00000000000EF00F0000000005F
:0A0010000000000000000000F3D71C
:08001C000AAE029E000E120064
:100024000B820BAE1CEF00F00368026801680068E5
:080034000A360232FF0E120031
:10003C000F0E0C6E470E0D6E0D2EFED70C2EFCD730
:06004C000000000012009C
:100052000B840BAE34EF00F0010E036E026A016AEC
:0A006200006A0A360232FF0E120097
:06006C000000000012007C
:0A007200210E0D6E0D2EFED71200B8
:0E007C00026A016A006A086A036A000E120036
:10008A00086A096A100E0C6E0134083609360450E3
:10009A00085E0550D8A0053C095ED8B007D00450C8
:1000AA0008260550D8B0053C0926D89000360136F6
:0600BA000C2EEAD7120033
:1000C000000187BF02D08A9601D08A8687BD02D000
:1000D0008A9401D08A8487BB02D08A9201D08A8216
:1000E00087B902D08A9001D08A8060B102D08A8814
:1000F00001D08A988A8ABADF8A9A87B702D08A960C
:1001000001D08A8687B502D08A9401D08A8487B3C9
:1001100002D08A9201D08A8287B102D08A9001D01F
:100120008A8060B102D08A8801D08A988A8A9EDF4C
:0E0130008A9A60A102D082DF01D09BDF12000C
:10013E000CB0E1EF00F00CA287EF01F00E6A000E9A
:10014E000264F8EF00F0F00E0214D8A4C3EF00F032
:10015E00023A01380F0B02260138F00B016E0038FF
:10016E000F0B01260038F00B006E08380F0B00261F
:10017E000838F00B086E0E84D89002BEDCEF00F04B
:10018E0008360036013602360E2A02BEDCEF00F0CB
:10019E0008360036013602360E2A02BEDCEF00F0BB
:1001AE0008360036013602360E2A0E5003647DEFF5
:1001BE0001F0035E0BBC08AE82EF01F0D880800E1A
:1001CE0008640030000E002201220222D8A082EF25
:1001DE0001F0023201320032034A87EF01F082EF62
:1001EE0001F001C002F000C001F008C000F0086A82
:1001FE00000E0E8602642FEF01F0F00E0214D8A44A
:10020E0017EF01F0023A01380F0B02260138F00BFE
:10021E00016E00380F0B01260038F00B006E0E84B5
:10022E00D89002BEDCEF00F00036013602360E2A00
:10023E0002BEDCEF00F00036013602360E2A02BE98
:10024E00DCEF00F00036013602360E2ADCEF00F04D
:10025E0001C002F000C001F0006A000E0E960E887A
:10026E0002645CEF01F0F00E0214D8A447EF01F027
:10027E00023A01380F0B02260138F00B016E0E8484
:10028E00D89002BEDCEF00F0013602360E2A02BE16
:10029E00DCEF00F0013602360E2A02BEDCEF00F073
:1002AE00013602360E2ADCEF00F001C002F0016AC0
:1002BE00000E0E8602648CEF01F0F00E0214D8A42C
:1002CE006BEF01F0023A0E84D89002BEDCEF00F024
:1002DE0002360E2A02BEDCEF00F002360E2A02BEF5
:1002EE00DCEF00F002360E2ADCEF00F0010E0C6E91
:1002FE00A9DE8FEF01F0020E0C6E89DE8FEF01F09A
:10030E00040E0C6E88DE8FEF01F0080E0C6EAFDE61
:02031E001200CB
:100320000001846B050E845D0AE284518225E16E32
:10033000000E8321E26E200EE66E842BF3D78451EB
:100340008225E16E000E8321E26EE66A8407845105
:100350008225856F000E8321866F0A0E046E000EC3
:10036000056E80C000F081C001F08FDE08C000F093
:1003700009C001F0300E002685C0E1FF86C0E2FF13
:1003800000C0E6FF0A0E046E000E056E80C000F08D
:1003900081C001F07ADE00C080F001C081F0000E63
:1003A000011802E1000E001801E102D08407CFD746
:0203B000120039
:0C03B2000E0E0D6E0D2EFED70000120086
:1003BE000134083609360450085E0550D8A0053CB5
:1003CE00095E003601360F0E0C6E01340836093602
:1003DE00045000A006D0085E0550D8A0053C095E6A
:1003EE0005D008260550D8B0053C09260036013642
:1003FE000C2EEBD700B006D0045008260550D8B00E
:08040E00053C09260000120064
:100416000B800BAE17EF02F0026A0AAEFF0E026EF9
:0C042600016E006E0A360232FF0E12005A
:100432000C6A0E6A0250D8A432EF02F001C002F038
:1004420000C001F0006A0E860250D8A432EF02F01A
:1004520001C002F0016A0E960E880250D8B444EF31
:1004620002F00E50035ED8A4D8A049EF02F0D89053
:1004720002BE4EEF02F0003601360236032E39EF8D
:1004820002F049EF02F0010E0C6EF7DD51EF02F0BF
:10049200020E0C6EDDDD51EF02F0040E0C6EBDDDBE
:0204A200120046
:1004A400025006180E6E086A096A0B6A0350076444
:1004B40045EF03F006500A6E068E028E03500B6E53
:1004C4000750036E000E0B6495EF02F00B50075EAD
:1004D400D8B436EF03F0070E076404EF03F0075EA9
:1004E40000C008F001C000F002C001F0026A074E2B
:1004F40036EF03F00764D9EF02F0075E00C008F09E
:1005040001C000F0016A074E36EF03F00764B7EF4D
:1005140002F0075E00C008F0006A074E36EF03F0F1
:1005240007649EEF02F00AC002F005C001F004C0A7
:1005340000F0086A60EF04F0030E0764A9EF02F00C
:10054400075E08380F0B086E074E36EF03F0D8909D
:100554000832074E36EF03F0D8900832074E36EFD4
:1005640003F0D890083236EF03F0030E0764C8EFA7
:1005740002F0075E08380F0B086E0038F00B0826EF
:1005840000380F0B006E074E36EF03F0D8900032A0
:100594000832074E36EF03F0D89000320832074E87
:1005A40036EF03F0D8900032083236EF03F0030E32
:1005B4000764F0EF02F0075E08380F0B086E00388E
:1005C400F00B082600380F0B006E0138F00B0026E4
:1005D40001380F0B016E074E36EF03F0D89001324D
:1005E40000320832074E36EF03F0D8900132003261
:1005F4000832074E36EF03F0D89001320032083249
:1006040036EF03F0030E076421EF03F0075E0838AA
:100614000F0B086E0038F00B082600380F0B006E25
:100624000138F00B002601380F0B016E0238F00B75
:10063400012602380F0B026E074E36EF03F0D890F6
:100644000232013200320832074E36EF03F0D890FE
:100654000232013200320832074E36EF03F0D890EE
:100664000232013200320832096A000E0EAE2AEF5D
:1006740004F0081E001E011E021E082A0022012288
:1006840002222AEF04F00750D8A44BEF03F060EFE6
:1006940004F0096A02C00AF0028E068E0750035C59
:1006A400076ED8B41DEF04F0070E0764EBEF03F0F8
:1006B400075E0450096E0550046E0650056E066A06
:1006C400074E1DEF04F0070E0764C0EF03F0075E4A
:1006D4000450096E0550046E056A074E1DEF04F0C0
:1006E400070E07649EEF03F0075E0450096E046A68
:1006F400074E1DEF04F0070E076485EF03F00AC0F0
:1007040002F060EF04F0030E076490EF03F0075E5D
:1007140009380F0B096E074E1DEF04F0D89009320B
:10072400074E1DEF04F0D8900932074E1DEF04F078
:10073400D89009321DEF04F0030E0764AFEF03F005
:10074400075E09380F0B096E0438F00B09260438CC
:100754000F0B046E074E1DEF04F0D89004320932DB
:10076400074E1DEF04F0D89004320932074E1DEFF6
:1007740004F0D890043209321DEF04F0030E07642C
:10078400D7EF03F0075E09380F0B096E0438F00B3E
:10079400092604380F0B046E0538F00B04260538BF
:1007A4000F0B056E074E1DEF04F0D890053204328E
:1007B4000932074E1DEF04F0D89005320432093295
:1007C400074E1DEF04F0D8900532043209321DEFB4
:1007D40004F0030E076408EF04F0075E09380F0BFA
:1007E400096E0438F00B092604380F0B046E053823
:1007F400F00B042605380F0B056E0638F00B0526A2
:1008040006380F0B066E074E1DEF04F0D890063223
:10081400053204320932074E1DEF04F0D890063237
:10082400053204320932074E1DEF04F0D890063227
:10083400053204320932086A000E0EAE2AEF04F0C3
:10084400091E041E051E061E092A0422052206226C
:1008540009500826045000220550012206500222A5
:100864000EBE41EF04F0D8A050EF04F00232013282
:1008740000320832033E50EF04F05AEF04F0D8B0CF
:1008840055EF04F0000E081E001E011E021E082A69
:100894000022012202220A7E55EF04F0010E0C6EA2
:1008A4004CDC62EF04F0020E0C6E47DC62EF04F0E5
:1008B400040E0C6E12EC00F062EF04F0000E0C6EED
:0208C400120020
:1008C6000001609180C087F060EC00F0608112004A
:1008D600939A939893909392939493968A9A8A98DC
:1008E6008A968A948A928A901EEC00F01EEC00F09A
:1008F6001EEC00F08A828A808A8A36EC00F08A9A98
:100906001EEC00F08A8A36EC00F08A9A1EEC00F0A3
:100916008A8A36EC00F08A9A1EEC00F08A908A8A5F
:1009260036EC00F08A9A1EEC00F08A8A36EC00F06B
:100936008A9A8A928A868A8A36EC00F08A9A1EEC0D
:1009460000F08A968A808A8A36EC00F08A9A8A9023
:100956008A8A36EC00F08A9A1EEC00F08A8A36EC17
:1009660000F08A9A8A808A8A36EC00F08A9A1EEC0F
:1009760000F08A908A8A36EC00F08A9A8A868A84FF
:100986008A828A808A8A36EC00F08A9A1EEC00F007
:0609960000016081120067
:10099C000900F5CFE6FF0006FBE10106F9E11200C4
:1009AC0010D0800E0001766F1AD0C00E766F17D063
:1009BC00940E766F14D0D40E766F11D0800E766FA5
:1009CC000ED000017651010AECE07651020AEDE0FE
:1009DC007651030AEDE07651040AEDE0EFD7770586
:1009EC00006E7651002600C076F000C087F060ECF7
:1009FC0000F060917A6B7A517825E96E000E7921BE
:100A0C00EA6EEE520BE07A517825E96E000E7921F0
:100A1C00EA6EEECF80F051DF7A2BEDD760811200B9
:100A2C00FF0E0001726FFF0E736FFF0E746FFF0EDF
:100A3C00756FC26A5D1C006E0050C1160F0EC0129D
:060A4C00C08EC280120002
:100A520080A60FD00001764B772B040E0B6EDB0EB7
:100A62000C6EFF0E0D6E0D2EFED70C2EFCD70B2E2C
:100A7200FAD780A811D00001010E765F000E775BD5
:100A8200040E0B6EDB0E0C6EFF0E0D6E0D2EFED7DE
:100A92000C2EFCD70B2EFAD70001800E7919006EAE
:100AA200800E7719005C02E17651785D02E2766B86
:100AB200776B800E7719006E800E005C02E1000EEB
:100AC200765D04E278C076F079C077F076C000F007
:060AD20077C001F01200E4
:060AD800067EE4DC1200C2
:100ADE00086A096A000E07620364F4EF05F002501B
:100AEE0006180A6E075003267E0ED8A085EF05F075
:100AFE00035ED8B0F9EF05F089EF05F0035ED8A0DC
:100B0E00FEEF05F0028E068E02C00EF001C00BF055
:100B1E0000C00DF000500402F4CF0CF0015005029D
:100B2E00F4CF00F0F3CF08F00402F3500C26F4508B
:100B3E000822000E00220D500502F3500C26F45030
:100B4E000822000E002202500402F3500826F45030
:100B5E00002202500502016A000E0122F350002607
:100B6E00F45001220D500602F3500826F4500022D4
:100B7E00026A000E012202220B500602F3500026DA
:100B8E00F4500122000E02220E500602F3500126EE
:100B9E00F450022202BEDCEF05F0083600360136B4
:100BAE0002360306D8B4FEEF05F0EFEF05F0D8805D
:100BBE00800E08640030000E002201220222D8A00E
:100BCE00EFEF05F0023201320032034AF9EF05F081
:100BDE000AAE029E000E01EF06F0010E3EEC00F092
:100BEE0001EF06F0020E12EC00F001EF06F0040E1B
:060BFE0029EC00F01200DA
:100C04000001786B78517625E96E000E7721EA6E43
:100C1400EE520BE078517625E96E000E7721EA6EEC
:0C0C2400EECF80F04EDE782BEDD71200F2
:100C30000B6A0350D8B45EEF06F002500A6E028EC3
:100C40008E0E035E03AE62EF06F0036C080E035CCB
:100C5000D8A03DEF06F0036E013602C001F0026A33
:100C6000080E035CD8A03DEF06F0036E0136016A62
:100C70000350D8A4D89047EF06F00350D8B447EFFC
:100C800006F0D89002320132032E41EF06F00BBC81
:100C900001A054EF06F0D8A054EF06F0012AD8B412
:100CA000022A02BE71EF06F00AAE77EF06F0021ECE
:100CB000011E012AD8B4022A77EF06F0026A016AFF
:100CC00077EF06F00B800BAE7BEF06F0026A0AAE00
:100CD0007BEF06F0FF0E026E016E0A3602327BEFEA
:100CE00006F0010E0C6E0BEC02F07DEF06F0000E2C
:100CF0000C6E7DEF06F0FF0E0C6E0150006E025080
:040D0000016E12006E
:100D04000050086E0150006E016A026A036A0B6AA1
:100D14000C6A960E036E0A6A00C001F008C000F067
:0A0D2400086A026A19EC02F01200DE
:100D2E000B6A0A6A096A00500402F4CF09F0F3CF85
:100D3E0008F001500502F4CF0BF0F3CF0AF000508B
:100D4E000502F3500926F4500A22E86A0B220150DC
:100D5E000402F3500926F4500A22E86A0B2208C056
:100D6E0000F009C001F00AC002F00BC003F012003F
:100D7E0000017C6B7D6B76C07EF077C07FF0800EBD
:100D8E007719006E800E005C02E1000E765D0BE2BC
:100D9E00010E7C6F000E7D6F765100087E6F77C05E
:100DAE007FF0000E7F577EC080F07FC081F078C04C
:100DBE0082F079C083F090EC01F0060E7A6F000E8F
:100DCE007B6F000E006E7B51005C02E17A510008D1
:100DDE0019E27A517825E16E7B517921E26E010E8E
:100DEE007A5D006E000E7B59016E00507825E96E1B
:100DFE0001507921EA6EEECFE6FF010E7A5F000E0A
:100E0E007B5BDFD778C0E1FF79C0E2FF200EE66E94
:100E1E007C517D111AE07A6B7B6B7A517825E96EE5
:100E2E007B517921EA6EEE50200A03E17A4B7B2B3F
:100E3E00F4D7010E7A5F000E7B5B7A517825E16E56
:0C0E4E007B517921E26E2D0EE66E120041
:100E5A00C26A5D1C006E0050C1160F0EC012C08E11
:100E6A0076C000F000360090003600900050C212A2
:100E7A00C280D9EC01F0C282C2A201D0FDD7C4CF90
:100E8A0001F0006A00C077F001C078F0C350001288
:100E9A00000E011200C077F001C078F0C290000E77
:100EAA000014026E0150800B036E000E031802E15B
:100EBA00000E021803E00001776B786B77C000F030
:060ECA0078C001F01200E7
:100ED0000450000A08E10550000A05E1FF0E006E0B
:100EE0007F0E016E58D00D6A096A086A0150001021
:100EF000D8B4000C015005180A6E0ABE0D1E0B6A0C
:100F000005AE05D0041E051E042AD8B4052A01AE7C
:100F100005D0001E011E002AD8B4012A0150051078
:100F20000A6E0ABE10D0DFEC01F00BB020D00DAE7F
:100F3000000C001E011E002AD8B4012A081E091E3A
:100F4000082AD8B4092A000C05AE0DD001BE07D07E
:100F50000150096E0050086E016A006AE8D7016A04
:100F6000006A002A000C011E001E0B2ADDD7082A89
:100F7000D8B4092A0450085CD8A4D9D70550095C14
:100F8000D8A4D5D7096A086A002AD8B4012A01AEC4
:080F9000CED70000FF0C120097
:100F9800CAEC0CF0FF0E926E0F01386B946A9590B4
:100FA80095823B9394DC3EDD0C0E876F60EC00F07D
:100FB800000E371802E1000E36183AE1346A356A35
:100FC8008390010E766F010E776F250E786F000EF5
:100FD800796FE8DC020E766F010E776F450E786F39
:100FE800000E796FDFDC80A010D0010E366E000E87
:100FF800376E040E0B6EDB0E0C6EFF0E0D6E0D2E93
:10100800FED70C2EFCD70B2EFAD780A210D0020EDA
:10101800366E000E376E040E0B6EDB0E0C6EFF0E76
:101028000D6E0D2EFED70C2EFCD70B2EFAD7C0D77F
:10103800010E876F60EC00F0000E371802E1010E18
:10104800361839E1010E766F010E776F3A0E786F18
:10105800000E796FA7DC38C076F039C077F0140E2F
:10106800786F000E796FF1DC00C038F001C039F0FC
:1010780000C076F001C077F06B0E786F000E796FC4
:101088007ADE020E766F010E776F6B0E786F000EA8
:10109800796F88DC80A00ED0366A376A040E0B6E32
:1010A800DB0E0C6EFF0E0D6E0D2EFED70C2EFCD730
:1010B8000B2EFAD7C1D7010E876F60EC00F0000E37
:1010C800371802E1020E3618D8A498EF0CF0000E7B
:1010D800351802E1000E3418D8A40BD2000115C04F
:1010E80000F016C001F0060E046E000E056E1BDE41
:1010F80000C017F001C018F08380010E766F010E52
:10110800776F1D0E786F000E796F4CDC0C0E046E35
:10111800000E056E17C000F018C001F0D5DE00C043
:101128001BF001C01CF000C076F001C077F06B0E18
:101138000001786F000E796F1EDE020E766F010EC9
:10114800776F6B0E786F000E796F2CDC83A202D05C
:10115800154A162A040E766F7CDED0DD620E046E08
:10116800A10E056ED60E066E7B0E076EB4DC4A0E17
:10117800046E8C0E056E110E066E850E076E52EC0F
:1011880002F000C004F001C005F002C006F003C080
:1011980007F0000E006E000E016E0C0E026E840E3B
:1011A800036E96DC41DD00C019F001C01AF0800E14
:1011B8003918026E800E0118025C02E10050385C9A
:1011C80018E3800E006E800E1A18005C02E11950B8
:1011D80003080FE2000E0001641902E1000E631912
:1011E80008E1010E636F000E646F614B622B5E6A4B
:1011F8005F6A800E3918006E800E1A18005C02E1D2
:101208001950385CD8A098D0800E006E800E1A183D
:10121800005C02E119500308D8A08ED0000E5F18B8
:1012280002E1000E5E18D8A487D00001636B646BDE
:10123800696B6A6B010E5E6E000E5F6E8280030E34
:101248000C6E970E0D6E0D2EFED70C2EFCD70000DF
:1012580000008290320E0C6E580E0D6E0D2EFED7C9
:101268000C2EFCD700008280030E0C6E970E0D6EBC
:101278000D2EFED70C2EFCD7000000008290320EF7
:101288000C6E580E0D6E0D2EFED70C2EFCD70000DE
:101298008280030E0C6E970E0D6E0D2EFED70C2E4F
:1012A800FCD7000000008290320E0C6E580E0D6EB6
:1012B8000D2EFED70C2EFCD700008280030E0C6E7C
:1012C800970E0D6E0D2EFED70C2EFCD700000000D9
:1012D8008290320E0C6E580E0D6E0D2EFED70C2E0F
:1012E800FCD700008280030E0C6E970E0D6E0D2E3B
:1012F800FED70C2EFCD7000000008290320E0C6E38
:10130800580E0D6E0D2EFED70C2EFCD700008280D5
:10131800030E0C6E970E0D6E0D2EFED70C2EFCD7FD
:10132800000000008290320E0C6E580E0D6E0D2ECD
:10133800FED70C2EFCD70000800E3918006E800EE8
:101348001A18005C02E11950385CD8B08ED0000140
:10135800000E6A1902E1000E6919D8A486D0010EA0
:10136800696F000E6A6F5E6A5F6A674B682B8280DE
:10137800060E0C6E300E0D6E0D2EFED70C2EFCD701
:10138800000082902F0E0C6EBF0E0D6E0D2EFED734
:101398000C2EFCD7000000008280060E0C6E300E6A
:1013A8000D6E0D2EFED70C2EFCD7000082902F0E4E
:1013B8000C6EBF0E0D6E0D2EFED70C2EFCD7000046
:1013C80000008280060E0C6E300E0D6E0D2EFED7BC
:1013D8000C2EFCD7000082902F0E0C6EBF0E0D6EE7
:1013E8000D2EFED70C2EFCD7000000008280060EC2
:1013F8000C6E300E0D6E0D2EFED70C2EFCD7000095
:1014080082902F0E0C6EBF0E0D6E0D2EFED70C2E79
:10141800FCD7000000008280060E0C6E300E0D6EA8
:101428000D2EFED70C2EFCD7000082902F0E0C6ECE
:10143800BF0E0D6E0D2EFED70C2EFCD7000000003F
:101448008280060E0C6E300E0D6E0D2EFED70C2E01
:10145800FCD7000082902F0E0C6EBF0E0D6E0D2E65
:10146800FED70C2EFCD70000000080A810D0010E7B
:10147800346E000E356E040E0B6EDB0E0C6EFF0E16
:101488000D6E0D2EFED70C2EFCD70B2EFAD780A092
:1014980022D000018294366A376A386A396A656BE5
:1014A800666B5B6A5C6A616B626B676B686B156A1B
:1014B800166A1B6A1C6A0A0E346E000E356E040E1C
:1014C8000B6EDB0E0C6EFF0E0D6E0D2EFED70C2E66
:1014D800FCD70B2EFAD70E0E0B6E310E0C6E940E37
:1014E8000D6E0D2EFED70C2EFCD70B2EFAD7000052
:1014F800EED50001010E876F60EC00F0000E351884
:1015080002E1010E3418D8A408D200018380010E2C
:10151800766F010E776F530E786F000E796FD6ECE9
:1015280004F067C076F068C077F06B0E786F000E35
:10153800796F21DC6B0E766F000E776F02EC06F088
:10154800020E766F010E776F4B0E786F000E796F73
:10155800D6EC04F061C076F062C077F06B0E786F5D
:10156800000E796F08DC6B0E766F000E776F02EC59
:1015780006F083A202D0154A162A040E766F69DC9B
:1015880082EC06F0620E046EA10E056ED60E066E93
:101598007B0E076E6FEC05F04A0E046E8C0E056E1E
:1015A800110E066E850E076E52EC02F000C004F0B4
:1015B80001C005F002C006F003C007F0000E006E7F
:1015C800000E016E0C0E026E840E036E6CEC05F0BC
:1015D80018EC06F000C019F001C01AF0800E391896
:1015E800026E800E0118025C02E10050385C18E3BC
:1015F800800E006E800E1A18005C02E11950030874
:101608000FE2000E0001641902E1000E631908E1FF
:10161800010E636F000E646F5E6A5F6A614B622B36
:10162800800E3918006E800E1A18005C02E11950FD
:10163800385CD8A098D0800E006E800E1A18005C16
:1016480002E119500308D8A08ED0000E5F1802E1FD
:10165800000E5E18D8A487D00001636B646B696BB9
:101668006A6B010E5E6E000E5F6E8280030E0C6E5A
:10167800970E0D6E0D2EFED70C2EFCD70000000025
:101688008290320E0C6E580E0D6E0D2EFED70C2E5B
:10169800FCD700008280030E0C6E970E0D6E0D2E87
:1016A800FED70C2EFCD7000000008290320E0C6E84
:1016B800580E0D6E0D2EFED70C2EFCD70000828022
:1016C800030E0C6E970E0D6E0D2EFED70C2EFCD74A
:1016D800000000008290320E0C6E580E0D6E0D2E1A
:1016E800FED70C2EFCD700008280030E0C6E970EDE
:1016F8000D6E0D2EFED70C2EFCD700000000829038
:10170800320E0C6E580E0D6E0D2EFED70C2EFCD719
:1017180000008280030E0C6E970E0D6E0D2EFED704
:101728000C2EFCD7000000008290320E0C6E580E72
:101738000D6E0D2EFED70C2EFCD700008280030EF6
:101748000C6E970E0D6E0D2EFED70C2EFCD70000DA
:1017580000008290320E0C6E580E0D6E0D2EFED7C4
:101768000C2EFCD70000800E3918006E800E1A1857
:10177800005C02E11950385CD8B08ED00001000E30
:101788006A1902E1000E6919D8A486D0010E696FA2
:10179800000E6A6F5E6A5F6A674B682B8280060E6E
:1017A8000C6E300E0D6E0D2EFED70C2EFCD70000E1
:1017B80082902F0E0C6EBF0E0D6E0D2EFED70C2EC6
:1017C800FCD7000000008280060E0C6E300E0D6EF5
:1017D8000D2EFED70C2EFCD7000082902F0E0C6E1B
:1017E800BF0E0D6E0D2EFED70C2EFCD7000000008C
:1017F8008280060E0C6E300E0D6E0D2EFED70C2E4E
:10180800FCD7000082902F0E0C6EBF0E0D6E0D2EB1
:10181800FED70C2EFCD7000000008280060E0C6E4E
:10182800300E0D6E0D2EFED70C2EFCD700008290C8
:101838002F0E0C6EBF0E0D6E0D2EFED70C2EFCD784
:10184800000000008280060E0C6E300E0D6E0D2E0C
:10185800FED70C2EFCD7000082902F0E0C6EBF0E08
:101868000D6E0D2EFED70C2EFCD7000000008280D6
:10187800060E0C6E300E0D6E0D2EFED70C2EFCD7FC
:10188800000082902F0E0C6EBF0E0D6E0D2EFED72F
:101898000C2EFCD70000000080A80ED0346A356AF0
:1018A800040E0B6EDB0E0C6EFF0E0D6E0D2EFED7AA
:1018B8000C2EFCD70B2EFAD780A021D00001366A57
:1018C800376A386A396A656B666B5B6A5C6A616B32
:1018D800626B676B686B156A166A1B6A1C6A0A0E6C
:1018E800346E000E356E040E0B6EDB0E0C6EFF0EA2
:1018F8000D6E0D2EFED70C2EFCD70B2EFAD70E0E22
:101908000B6E310E0C6E940E0D6E0D2EFED70C2E36
:10191800FCD70B2EFAD70000F1D50001010E876F16
:1019280060EC00F063EF08F0010E876F60EC00F0E8
:06193800DCEF07F0FFD711
:1019940010EE15F04B0E006E010E016E3E0EF66E4B
:1019A400190EF76E000EF86ECEEC04F010EE61F036
:1019B4000A0E006E010E016E890EF66E190EF76E98
:0A19C400000EF86ECEEC04F01200E5
:02193E000000A7
:021940000000A5
:021942000000A3
:021944000000A1
:081946005675656C74617300B5
:0F194E004D454E55205052494E434950414C0093
:02195D00000088
:02195F00000086
:02196100000084
:0B19630053455420414C5455524100A4
:06196E00412E20422E0074
:0819740042616A6F733A200022
:08197C00416C746F733A200006
:02198400000061
:011986000F51
:0219870000005E
:0219890000005C
:02198B0000005A
:02198D00000058
:02198F00000056
:02199100000054
:020000040030CA
:0D000100231F3CFFBF81FF0FC00FE00F4029
:00000001FF
