:1000000093EF06F00000000000EF00F00000000099
:0A0010000000000000000000F3D71C
:06001C00000000001200CC
:100022000F0E0C6E470E0D6E0D2EFED70C2EFCD74A
:06003200000000001200B6
:0A003800210E0D6E0D2EFED71200F2
:100042000B840BAE2CEF00F0010E036E026A016A04
:0A005200006A0A360232FF0E1200A7
:08005C000AAE029E000E120024
:100064000B820BAE3CEF00F0036802680168006885
:080074000A360232FF0E1200F1
:10007C00086A096A100E0C6E0134083609360450F1
:10008C00085E0550D8A0053C095ED8B007D00450D6
:10009C0008260550D8B0053C0926D8900036013604
:0600AC000C2EEAD7120041
:1000B20035BE02D08A9601D08A8635BC02D08A9497
:1000C20001D08A8435BA02D08A9201D08A8235B8A8
:1000D20002D08A9C01D08A8C18B002D08A8801D0C2
:1000E2008A988A8A9ADF8A9A35B602D08A9601D08D
:1000F2008A8635B402D08A9401D08A8435B202D07D
:100102008A9201D08A8235B002D08A9C01D08A8C30
:1001120018B002D08A8801D08A988A8A7EDF8A9AA9
:0C01220018A002D07DDF01D086DF1200A3
:0E012E00026A016A006A086A036A000E120083
:0C013C0018902EC035F0B7DF18801200BC
:100148000CB0E6EF00F00CA28CEF01F00E6A000E86
:100158000264FDEF00F0F00E0214D8A4C8EF00F01E
:10016800023A01380F0B02260138F00B016E0038F5
:100178000F0B01260038F00B006E08380F0B002615
:100188000838F00B086E0E84D89002BEE1EF00F03C
:1001980008360036013602360E2A02BEE1EF00F0BC
:1001A80008360036013602360E2A02BEE1EF00F0AC
:1001B80008360036013602360E2A0E50036482EFE6
:1001C80001F0035E0BBC08AE87EF01F0D880800E0B
:1001D80008640030000E002201220222D8A087EF16
:1001E80001F0023201320032034A8CEF01F087EF4E
:1001F80001F001C002F000C001F008C000F0086A78
:10020800000E0E86026434EF01F0F00E0214D8A43A
:100218001CEF01F0023A01380F0B02260138F00BEF
:10022800016E00380F0B01260038F00B006E0E84AB
:10023800D89002BEE1EF00F00036013602360E2AF1
:1002480002BEE1EF00F00036013602360E2A02BE89
:10025800E1EF00F00036013602360E2AE1EF00F039
:1002680001C002F000C001F0006A000E0E960E8870
:10027800026461EF01F0F00E0214D8A44CEF01F013
:10028800023A01380F0B02260138F00B016E0E847A
:10029800D89002BEE1EF00F0013602360E2A02BE07
:1002A800E1EF00F0013602360E2A02BEE1EF00F05F
:1002B800013602360E2AE1EF00F001C002F0016AB1
:1002C800000E0E86026491EF01F0F00E0214D8A41D
:1002D80070EF01F0023A0E84D89002BEE1EF00F010
:1002E80002360E2A02BEE1EF00F002360E2A02BEE6
:1002F800E1EF00F002360E2AE1EF00F0010E0C6E7D
:100308009CDE94EF01F0020E0C6EA4DE94EF01F077
:10031800040E0C6EA3DE94EF01F0080E0C6E03DFE2
:020328001200C1
:10032A000B800BAEA1EF01F0026A0AAEFF0E026E5D
:0C033A00016E006E0A360232FF0E120047
:10034600326A050E325C0AE232503024E16E000E4B
:100356003120E26E200EE66E322AF3D73250302478
:10036600E16E000E3120E26EE66A3206325030242B
:10037600336E000E3120346E0A0E046E000E056ECA
:100386002EC000F02FC001F076DE08C000F009C0D4
:1003960001F0300E002633C0E1FF34C0E2FF00C09A
:1003A600E6FF0A0E046E000E056E2EC000F02FC08A
:1003B60001F061DE00C02EF001C02FF0000E011822
:1003C60002E1000E001801E102D03206CFD712007A
:0C03D6000E0E0D6E0D2EFED70000120062
:1003E2000C6A0E6A0250D8A40AEF02F001C002F0B1
:1003F20000C001F0006A0E860250D8A40AEF02F093
:1004020001C002F0016A0E960E880250D8B41CEFA9
:1004120002F00E50035ED8A4D8A021EF02F0D890CB
:1004220002BE26EF02F0003601360236032E11EF2D
:1004320002F021EF02F0010E0C6E78DE29EF02F0DD
:10044200020E0C6EFDDD29EF02F0040E0C6E05DECD
:02045200120096
:100454000900F5CFE6FF0006FBE10106F9E1120011
:10046400FF0E206EFF0E216EFF0E226EFF0E236E16
:10047400C26A171C006E0050C1160F0EC012C08E47
:04048400C280120020
:10048800C26A171C006E0050C1160F0EC012C08E33
:1004980024C000F000360090003600900050C212D0
:1004A800C28095DFC282C2A201D0FDD7C4CF01F0BD
:1004B800006A00C025F001C026F0C3500012000EEB
:1004C800011200C025F001C026F0C290000E0014F1
:1004D800026E0150800B036E000E031802E1000E3D
:1004E800021802E0256A266A25C000F026C001F03D
:0204F8001200F0
:1004FA00939A9398939C9392939493968A9A8A98B0
:10050A008A968A948A928A9C87DD86DD85DD8A822C
:10051A008A8C8A8A7EDD8A9A7FDD8A8A7ADD8A9A3D
:10052A007BDD8A8A76DD8A9A77DD8A9C8A8A71DD02
:10053A008A9A72DD8A8A6DDD8A9A8A928A868A8A7C
:10054A0068DD8A9A69DD8A968A8C8A8A62DD8A9A45
:10055A008A9C8A8A5EDD8A9A5FDD8A8A5ADD8A9A4D
:10056A008A8C8A8A56DD8A9A57DD8A9C8A8A51DD64
:10057A008A9A8A868A848A828A8C8A8A4ADD8A9AAE
:06058A004BDD1880120099
:100590000050086E0150006E016A026A036A0B6A1D
:1005A0000C6A960E036E0A6A00C001F008C000F0E3
:0805B000086A026A16DF12005E
:1005B8002A6A2B6A24C02CF025C02DF0800E25183D
:1005C800006E800E005C02E1000E245C0BE2010E5E
:1005D8002A6E000E2B6E245000082C6E25C02DF0BC
:1005E800000E2D562CC02EF02DC02FF026C030F056
:1005F80027C031F0A4DE060E286E000E296E000E0C
:10060800006E2950005C02E12850000819E22850C9
:100618002624E16E29502720E26E010E285C006E28
:10062800000E2958016E00502624E96E015027203B
:10063800EA6EEECFE6FF010E285E000E295ADFD7DC
:1006480026C0E1FF27C0E2FF200EE66E2A502B10DD
:100658001AE0286A296A28502624E96E295027209A
:10066800EA6EEE50200A03E1284A292AF4D7010E3F
:10067800285E000E295A28502624E16E295027208A
:08068800E26E2D0EE66E120079
:100690000FD0800E246E19D0C00E246E16D0940E8A
:1006A000246E13D0D40E246E10D0800E246E0DD084
:1006B0002450010AEEE02450020AEEE02450030A1E
:1006C000EEE02450040AEEE0F0D72504006E24503A
:1006D000002600C024F000C035F0EBDC1890286A3A
:1006E00028502624E96E000E2720EA6EEE520BE019
:1006F00028502624E96E000E2720EA6EEECF2EF059
:0A0700001DDD282AEDD71880120035
:10070A000B6A0350D8B4CBEF03F002500A6E028E84
:10071A008E0E035E03AECFEF03F0036C080E035C8C
:10072A00D8A0AAEF03F0036E013602C001F0026AF4
:10073A00080E035CD8A0AAEF03F0036E0136016A23
:10074A000350D8A4D890B4EF03F00350D8B4B4EF50
:10075A0003F0D89002320132032EAEEF03F00BBC45
:10076A0001A0C1EF03F0D8A0C1EF03F0012AD8B469
:10077A00022A02BEDEEF03F00AAEE3EF03F0021E26
:10078A00011E012AD8B4022AE3EF03F0026A016AC1
:10079A00E3EF03F00B800BAEE7EF03F0026A0AAE59
:1007AA00E7EF03F0FF0E026E016E0A360232E7EF40
:1007BA0003F0010E0C6EB4DDE9EF03F0000E0C6ECF
:1007CA00E9EF03F0FF0E0C6E0150006E0250016E4D
:0207DA0012000B
:1007DC00086A096A000E0762036473EF04F00250A2
:1007EC0006180A6E075003267E0ED8A004EF04F0FC
:1007FC00035ED8B077EF04F008EF04F0035ED8A0E6
:10080C007CEF04F0028E068E02C00EF001C00BF0DD
:10081C0000C00DF000500402F4CF0CF001500502A2
:10082C00F4CF00F0F3CF08F00402F3500C26F45090
:10083C000822000E00220D500502F3500C26F45035
:10084C000822000E002202500402F3500826F45035
:10085C00002202500502016A000E0122F35000260C
:10086C00F45001220D500602F3500826F4500022D9
:10087C00026A000E012202220B500602F3500026DF
:10088C00F4500122000E02220E500602F3500126F3
:10089C00F450022202BE5BEF04F00836003601363B
:1008AC0002360306D8B47CEF04F06EEF04F0D88067
:1008BC00800E08640030000E002201220222D8A013
:1008CC006EEF04F0023201320032034A77EF04F08B
:1008DC000AAE029E000E7FEF04F0010E22DC7FEFC9
:1008EC0004F0020E32EC00F07FEF04F0040E21EC69
:0408FC0000F01200F6
:10090000025006180E6E086A096A0B6A03500764E3
:1009100073EF05F006500A6E068E028E03500B6EC2
:100920000750036E000E0B64C3EF04F00B50075E1C
:10093000D8B464EF05F0070E076432EF05F0075EE8
:1009400000C008F001C000F002C001F0026A074ECA
:1009500064EF05F0076407EF05F0075E00C008F0DC
:1009600001C000F0016A074E64EF05F00764E5EF8F
:1009700004F0075E00C008F0006A074E64EF05F05F
:100980000764CCEF04F00AC002F005C001F004C017
:1009900000F0086A90EF06F0030E0764D7EF04F04A
:1009A000075E08380F0B086E074E64EF05F0D8900D
:1009B0000832074E64EF05F0D8900832074E64EF16
:1009C00005F0D890083264EF05F0030E0764F6EFE7
:1009D00004F0075E08380F0B086E0038F00B08268D
:1009E00000380F0B006E074E64EF05F0D890003210
:1009F0000832074E64EF05F0D89000320832074EF7
:100A000064EF05F0D8900032083264EF05F0030E71
:100A100007641EEF05F0075E08380F0B086E0038FC
:100A2000F00B082600380F0B006E0138F00B002683
:100A300001380F0B016E074E64EF05F0D8900132BC
:100A400000320832074E64EF05F0D89001320032D0
:100A50000832074E64EF05F0D890013200320832B8
:100A600064EF05F0030E07644FEF05F0075E0838EA
:100A70000F0B086E0038F00B082600380F0B006EC5
:100A80000138F00B002601380F0B016E0238F00B15
:100A9000012602380F0B026E074E64EF05F0D89066
:100AA0000232013200320832074E64EF05F0D8906E
:100AB0000232013200320832074E64EF05F0D8905E
:100AC0000232013200320832096A000E0EAE58EFCF
:100AD00006F0081E001E011E021E082A0022012226
:100AE000022258EF06F00750D8A479EF05F090EFF6
:100AF00006F0096A02C00AF0028E068E0750035CF7
:100B0000076ED8B44BEF06F0070E076419EF06F036
:100B1000075E0450096E0550046E0650056E066AA5
:100B2000074E4BEF06F0070E0764EEEF05F0075E89
:100B30000450096E0550046E056A074E4BEF06F02F
:100B4000070E0764CCEF05F0075E0450096E046AD7
:100B5000074E4BEF06F0070E0764B3EF05F00AC02F
:100B600002F090EF06F0030E0764BEEF05F0075E9B
:100B700009380F0B096E074E4BEF06F0D89009327B
:100B8000074E4BEF06F0D8900932074E4BEF06F0B8
:100B9000D89009324BEF06F0030E0764DDEF05F045
:100BA000075E09380F0B096E0438F00B092604386C
:100BB0000F0B046E074E4BEF06F0D890043209324B
:100BC000074E4BEF06F0D89004320932074E4BEF38
:100BD00006F0D890043209324BEF06F0030E07649A
:100BE00005EF06F0075E09380F0B096E0438F00BAD
:100BF000092604380F0B046E0538F00B042605385F
:100C00000F0B056E074E4BEF06F0D89005320432FD
:100C10000932074E4BEF06F0D89005320432093204
:100C2000074E4BEF06F0D8900532043209324BEFF5
:100C300006F0030E076436EF06F0075E09380F0B67
:100C4000096E0438F00B092604380F0B046E0538C2
:100C5000F00B042605380F0B056E0638F00B052641
:100C600006380F0B066E074E4BEF06F0D890063293
:100C7000053204320932074E4BEF06F0D8900632A7
:100C8000053204320932074E4BEF06F0D890063297
:100C9000053204320932086A000E0EAE58EF06F033
:100CA000091E041E051E061E092A0422052206220C
:100CB0000950082604500022055001220650022245
:100CC0000EBE6FEF06F0D8A07EEF06F002320132C2
:100CD00000320832033E7EEF06F08AEF06F0D8B00D
:100CE00084EF06F0000E081E001E011E021E082AD8
:100CF0000022012202220A7E84EF06F0010E0C6E11
:100D0000A4EC00F092EF06F0020E0C6EA4EC00F0E2
:100D100092EF06F0040E0C6E32EC00F092EF06F04B
:060D2000000E0C6E120033
:100D2600CFEC06F07DEC02F00C0E356E59EC00F0BF
:100D360032EC02F0040E246E44EC02F026DC620E65
:100D4600046EA10E056ED60E066E7B0E076E43DD93
:100D56004A0E046E8C0E056E110E066E850E076E1B
:100D6600CCDDD0DC00C015F001C016F000C024F0C8
:100D760001C025F0190E266E000E276E1ADC010E34
:100D8600246E010E256E190E266E000E276E7DDC72
:040D9600D1D7FFD7DB
:100D9E0010EE15F0030E006E010E016E9A0EF66E39
:0E0DAE000D0EF76E000EF86E2AEC02F0120029
:020D9A00000057
:010D9C000F47
:020000040030CA
:0D000100231F3CFFBF81FF0FC00FE00F4029
:00000001FF
